:08180000021E040000000000BC
:08185000280F04000000000055
:08186000940E040000000000DA
:081870006C0F040000000000F1
:0818E800E00E04000000000006
:101920009A1A040000000000F21B040000000000EE
:08193000040F04000000000098
:10197000B20F040000000000061004000000000088
:081BF8003220EF0083E0200021
:101C0000008041001040BA000160EF0000000600B3
:101C10000A63000075720000726500006E740000B7
:101C20005F7000006F730000582000003D2000002E
:101C30002564000000000000A608E20005003A004C
:101C4000C402A800C422A800C442A800C482A800FC
:101C500034003700A208E20018003A002445800052
:101C60006220E10009003A00C402A900C422A800D1
:101C7000C442A900C482A800A608F8008001F900A7
:101C8000A608F8008601F9000B0037002445800003
:101C90006120E10008003A00C402A800C422A900A3
:101CA000C442A800C482A900A608F8008001F90077
:101CB000A608F8008601F9001A00370014458000D4
:101CC0006120E10017003A00244580006120E10016
:101CD00009003A00C402A900C422A800C442A80016
:101CE000C482A900A608F8008001F900A608F8003F
:101CF0008601F9000B003700244580006220E100D6
:101D000008003A00C402A800C422A900C442A900E5
:101D1000C482A800A608F8008001F900A608F8000F
:101D20008601F900000006004200F8003600F800C5
:101D30003200F800801F7800200020000C0009000D
:101D4000B01F7800D44380006120E10008003A0011
:101D5000A228EF002400200024458800040520006C
:101D6000344588001C0E0200000000000B00370004
:101D7000D44380006220E10008003A0014002000F3
:101D80001445880014002000244588000405200024
:101D9000344588001C0E0200000000008460A90089
:101DA000A00120000C0009004F1078004F007800BF
:101DB0003200F9003600F9004200F9000040060048
:101DC0004200F8003600F8003200F800801F78006A
:101DD000200020000C000900B01F78008760A900D7
:101DE0009760A8008680A900A00120000C000900CF
:101DF0004F1078004F0078003200F9003600F900EB
:101E00004200F900004006004200F8003600F800E9
:101E10003200F800801F7800200020000C0009002C
:101E2000B01F78008780A9009780A80087A0A9002C
:101E3000A00120000C0009004F1078004F0078002E
:101E40003200F9003600F9004200F90000400600B7
:101E50004200F8003600F8003200F800801F7800D9
:101E6000200020000C000900B01F780055168000EB
:101E7000638062006CA8B7006C88BF0061006000DE
:101E80006EA8B7006E88BF007088B6008002780028
:101E90000500E00004003A004A28ED004200AE00D0
:101EA0004C28ED00030037004A28EC004220AF0028
:101EB0004C28EC008420A900A00120000C0009009F
:101EC0004F1078004F0078003200F9003600F9001A
:101ED0004200F900004006004200F8003600F80019
:101EE0003200F800801F7800200020000C0009005C
:101EF000B01F780055168000638062006CA8B700A0
:101F00006C88BF00E2026000854388007028D5001D
:101F10006E88BF007088B600800278000500E0007F
:101F200004003A004A28EC004220AF004C28EC00A4
:101F3000030037004A28ED004200AE004C28ED00B7
:101F400084A0A900A00120000C0009004F10780017
:101F50004F0078003200F9003600F9004200F90025
:101F6000004006004200F8003600F8003200F80099
:101F7000801F7800200020000C000900B01F7800AE
:101F8000551680006C8062006CA8B7006C88BF009A
:101F9000E4026000954388007228D5007228D500BD
:101FA0006C88BF00E8026000A54388007428D50053
:101FB0007428D5007428D5007288BF007488B600D4
:101FC000800278000500E00004003A004E28ED0091
:101FD0004200AE005028ED00030037004E28EC0010
:101FE0004220AF005028EC0088A0A900A0012000EA
:101FF0000C0009004F1078004F0078003200F90003
:102000003600F9004200F900004006004200F800E6
:102010003600F8003200F800801F78002000200011
:102020000C000900B01F7800551680006C8062001B
:102030006CA8B7006C88BF00E4026000954388007C
:102040007228D5007228D5006C88BF00E8026000B5
:10205000A54388007428D5007428D5007428D500BD
:102060007288BF007488B600800278000500E00026
:1020700004003A004E28EC004220AF005028EC004B
:10208000030037004E28ED004200AE005028ED005E
:1020900088C0A900A00120000C0009004F107800A2
:1020A0004F0078003200F9003600F9004200F900D4
:1020B00000400600851F7800C500200003000900CD
:1020C000B51F7800000278008102780002037800D2
:1020D000830378000000EB008000EB000001EB00C0
:1020E0008001EB000800A10007F0A6000500370002
:1020F0000800A0000402EA008582EA000683EA00E4
:102100008783EA008504720002003A0087047300A6
:1021100015003200394720000340A7000B003700AC
:102120004200A9000482D2008582D2000683D20038
:102130008783D2000080D2008180D2000281D20049
:102140008381D2008904E900F3FF3A00C44CDD002A
:102150004200A90009F0A1000340A10083816C00A6
:102160000800A70003F0A0002501200003000900DB
:10217000CF127800CF02780000000600881F780098
:102180002801200004000900B81F78008005EB003A
:102190006066B8000304780087047800FA7F2000A6
:1021A0004200A9004220A90044C4DE0008046500E2
:1021B0000800E000710032004200A9004220A9009E
:1021C000C4CCDE00890465000900E0006B00320029
:1021D0000884440009B0A70004003700F83FB100AC
:1021E0006600320065003900030037001A40200005
:1021F0008542450061003100878669004200A900E0
:102200004220A900F300B2000340A000F700B20092
:102210000740A000881F78000124B800002DB800F6
:102220000A0544008B854C000C80B0000224B800E5
:102230008B0544000C864C00012CB8000005EB0017
:102240008B0544000C864C000A80B0000034B800B6
:102250008B0544000C864C000A80B0008005EB0022
:102260000324B8000C0644000A854C000B80B00023
:10227000022CB8000C0644000A854C000B80B0000C
:102280000134B8000C0644000A854C000B80B000F5
:10229000003CB8000C0644000A854C000B80B000DE
:1022A0000C0078000006EB00032CB8000A0544007F
:1022B0008B854C000C80B0000234B8000A05440045
:1022C0008B854C000C80B0000334B8008B054400B3
:1022D0000C864C00013CB8000A0544008B854C007C
:1022E0000C80B000023CB8008B0544000C864C000A
:1022F000033CB8000C0644008A0078000B0178000B
:102300008C017800540020004200A9008381D30092
:102310000281D3008180D3000080D3000402E90051
:10232000F9FF3A004F0478000804E8000103700048
:102330000100320002003700030371000800320080
:102340000340A700060037004200A9000080D20029
:102350008180D2000281D2008381D2000804E9008A
:102360004444DD0003F0A1000DF0A70003F0A0003D
:102370000340A10083016C00030037006000B80037
:102380006001B80000003700A80120000400090027
:102390004F1478004F04780000000600881F780072
:1023A0002801200004000900B81F78008786690012
:1023B0000304780087047800FA7F20004200A90017
:1023C0004220A90044C4DE00080465000800E000C3
:1023D0006C0032004200A9004220A900C4CCDE00FB
:1023E000890465000900E000660032000005EB008A
:1023F0000906540003003900FC3FB00061003100C1
:10240000040037001B4020000B0656005D00390019
:102410005C0032000004EB008004EB000005EB00E0
:102420008005EB00F301B2000340A000F701B20009
:102430000740A0008C1F78006C03200004005000AF
:102440008580580006015900878159000200330039
:102450000600310006003A00040040008580480074
:102460000601490087814900010037000800A000EB
:102470000C06E9000B0032004200A9000080D200E7
:102480008180D2000281D2008381D2004200A90063
:102490000884D2008984D2000A85D2008B85D200BC
:1024A000E6FF37004F0678000B50A7000100370009
:1024B000060037004200A9008B85D3000A85D300AF
:1024C0008984D3000884D300030037000C06E90098
:1024D0004200A9002B0032004200AF000900370083
:1024E0000080D2008180D2000281D2008381D2009C
:1024F0000402500085825800060359008783590062
:10250000150039000804E80013003A008904E800C7
:1025100011003A000A05E8000F003A008B05E800B8
:102520000D003A000C06E800160032000A003700E1
:102530000C06E900130032000B40A700060037002C
:102540004200A9000884D2008984D2000A85D20002
:102550008B85D200F8FF37004466DD004200A900F9
:102560000CF0A1000DF0A7000CF0A0000B40A100A2
:102570008B016E000A01780089007800080078005D
:1025800005003700000020000100200002002000AC
:102590000300200000003700A8012000040009000B
:1025A0004F1478004F04780000000600851F780063
:1025B000861F780003027800030378004200A90018
:1025C00044A2DE00F57F20000482620003003A008E
:1025D0006000B8000001EB00130037000438B100C0
:1025E000F300B200370020004200A9000080D200B2
:1025F0008180D2000281D2008381D2008703E9006A
:10260000F9FF3A0001007800820078000370A10011
:102610000480FD004200A9000482D30006F0A70058
:1026200004F0A00003016A004F037800CF02780095
:1026300000000600851F7800C50020000400090086
:10264000B51F7800000278008102780083037800CB
:10265000020378004200A9004220A9008180D20034
:102660000180FD00F10FB2000100E0004B003200DC
:102670004200A9004220A9008381D2000380FD000E
:10268000F30FB2000300E000440032000080FB00C2
:1026900001C0410004003100F007B1003F003200EA
:1026A0003E003900020037001048B0003B00310006
:1026B00007856A004200A9004220A900F50FB20078
:1026C0000570A0004200A900F70FB2000770A0003B
:1026D0000621B800062CB80083014C008900780060
:1026E0004200AF008100E8004200A900043CB800AD
:1026F00083014C0081804C00072CB80081004C0005
:102700000000E8000100E0004220AF0001003700B7
:10271000030037000300E0004220AF00050037004F
:1027200001F0A700030037008381D2008180D2002E
:102730000000E900010178004200A9000370A60032
:102740000900370007F02F00878161000310B000F7
:10275000600149000200E00003003A000300E000CD
:1027600001003A000000E8000080FD004200A900DE
:102770004220A9008080D3000AF0A70001F0A00049
:1027800002F0A1000280FD00814069000380FD008D
:1027900003417800020078000300370000002000A9
:1027A000010020000000370045012000040009005E
:1027B000CF127800CF02780000000600851F780055
:1027C000C500200004000900B51F78008004EB005C
:1027D0008384680001037800800278000304780095
:1027E000820378008180D2000180FD008180FB009F
:1027F0000100E0004E0032008381D2000380FD0022
:102800008381FB000300E000490032000000EB0080
:1028100003C0500003003900F047B000440031000D
:10282000030037001048B100410039004000320079
:1028300085007800060178000270A000F20FB20057
:10284000F80FB2000870A0009A0120008001EB0090
:102850000002EB008780500008015900020033009D
:102860000400310004003A0087804000080149005C
:10287000010037000400A0000A05E900070032004B
:102880004200A9008180D2000281D2004200A9004A
:102890000482D2008381D200EEFF37000005EB00F6
:1028A0000380A70001003700060037004200A9009E
:1028B0008381D3000370A1000482D3000A85D20073
:1028C000020037000000E900190032000AF0A700FA
:1028D000050039008180D2000281D200878050003B
:1028E00008015900090039000402E80007003A0015
:1028F0008301E80005003A000000E8000C00320007
:10290000020037000000E900090032000080FD00ED
:102910008080D30001F0A00009F0A60001F0A10022
:102920000370A10081C06900040078000300370033
:1029300000002000010020000000370045012000B9
:1029400004000900CF127800CF02780000000600D2
:102950000001780081017800014078000080FD00CE
:1029600000F0A0008180D2000180FD008180FB008A
:10297000E408200081405200060032000000E00020
:10298000040032004200A9000080D3008100E90069
:10299000FAFF3A0003F0A600020037000000EA0048
:1029A0000000370000000600851F7800C5002000E9
:1029B00003000900B51F780000F0A6000C003700E6
:1029C0000000EA000480A00004F0A6000800370020
:1029D000801F7800D00220002322AF00FEFF3700C6
:1029E00024A2B7004F0078000480A1000860ED0029
:1029F0008002EB00800378008404780004F0A100DA
:102A00000404E00006003A0009F0A70002003700C5
:102A1000050020000F003700050020000D003700E2
:102A2000E64252000A0039000003200009F0A60027
:102A3000000220002322AF00FEFF370024A2B700CF
:102A40008502E900FBFF3B00550020000100370034
:102A500084027800640020000580A7000402E800DA
:102A600005E0A00009F0A70005F0A0000871220011
:102A7000110009008883D8008015020000000000C2
:102A800081037800883E2000110009008883D80067
:102A90008015020000000000810378004806200035
:102AA000110009008883D800801502000000000092
:102AB00081037800A8002000110009008883D80055
:102AC00080150200000000000980A6000500370004
:102AD000D00220002322AF00FEFF370024A2B7005F
:102AE0000980A1000003200000C0400050018800C0
:102AF0002322AF00FEFF370024A2B70020003700DA
:102B0000060320000000E0000E003A0005E0A600E9
:102B1000160037000402E9000524E100020032003B
:102B20004200AF00000006000000E00005003A008F
:102B300005E0A6000D00370005F0A6000602200003
:102B40000A00370005E0A1000980A6000700370051
:102B500000057800D00220002322AF00FEFF3700DE
:102B600024A2B7000980A1000A00780000404300B9
:102B70002322AF00FEFF370024A2B70000000600AA
:102B80002501200003000900CF127800CF02780051
:102B900000000600851F7800C50020000300090022
:102BA000B51F78008004EB00080028004300AF0048
:102BB00083016C000000E00003003A00FAFF2700E8
:102BC0000A8560004220AE00010578008A85690010
:102BD0000103780083037800030678004220A900EF
:102BE0004200A9000683D2000680FD00F60FB20065
:102BF0000600E000A10032004220A9004200A90026
:102C00008783D2000780FD00F70FB2000700E000C5
:102C10009F0032004220A9004200A9000638E100CE
:102C20009C003200A30033000900A1000910A0009D
:102C30000684530007037800F10FB2000170A00072
:102C4000F30FB2000370A000870220000838E100F3
:102C5000110033004220A9004200A9008180D30066
:102C60000080D3000804E900FAFF3A000D003700A5
:102C7000870220000838E100090033004220A90043
:102C80004200A9008381D3000281D3000804E90037
:102C9000FAFF3A000F003700020078008300780046
:102CA000430037000BF0A600110037000940A700D1
:102CB0008C0578000000EA000200320081C0EA00C2
:102CC000010037008100EA000940A7002B0037000F
:102CD000070037000BF0A600050037000201EA00EC
:102CE0000200320083C1EA00010037008301EA00DC
:102CF000F50FB2004220A9004200A90002004000E6
:102D000083C048004200AF000930A0000900A700BE
:102D1000090037000910A700010037000B00370039
:102D20000BF0A700150037000930A7002900370075
:102D30000960A0001E0037000BF0A7000F0037004D
:102D40000930A70023003700190037000920A1002F
:102D50000BF0A700040037008A0578000930A700AF
:102D60001C003700360037000940A00001C8B2003F
:102D70000170A700CDFF37008A057800F10FB2007F
:102D8000810370000A0032000170A70008003700BC
:102D90004220A9004200A9000080D2008180D20018
:102DA0000603E9004220AF0031003700F6FF37008C
:102DB0000900A7008A0578000910A7008C05780093
:102DC0000950A6001A0037000AF0A7000080A000F2
:102DD0001B0037004200A80081C0D3000080D30050
:102DE0004200AF000950A0000603E80020003200B6
:102DF0000950A600080037000000E80006003A006D
:102E00008140E80004003A0081C0D3000080D30074
:102E10000603E800160032000900A7008A057800C2
:102E20000910A7008C0578004220AF001000370081
:102E30000960A7008A0578000970A7008C05780052
:102E400001017000230032000170A1000680FD0026
:102E50004220A9004200A9000683D30081006B0034
:102E600001F0A0000BF0A60001F0A100190037004E
:102E70000000200001002000160037000AF0A70023
:102E800083016C0002007800830078001100370095
:102E900010003700F30FB2000370A000F10FB20072
:102EA0000170A0000BF0A7000370A1000920A00092
:102EB00088FF370007045300F10FB2000170A00033
:102EC000F30FB2000370A0000910A1000900A000D8
:102ED00067FF37002501200003000900CF127800AA
:102EE000CF02780000000600851F7800861F78005A
:102EF000E10820000600A10000F0A6000300370052
:102F00000600A0000000EA00000037000000E0001A
:102F10001400320000F0A700040037004200A900AE
:102F20000080D2008100E900FAFF37000180FD0037
:102F30004200A9008180D30000F0A1000080FD00C4
:102F4000814068000040B2000600A70001F0A00028
:102F500007003700014078000170A0000140B20076
:102F6000030037000000EB008000EB00000037009A
:102F70004F037800CF02780000000600851F78001C
:102F8000861F7800871F78000382680004F0A6007F
:102F9000060037004200A9004220A90001F0A60067
:102FA000260037004200A800240037000102780004
:102FB0008002780003037800820378008180D200C9
:102FC0000180FD008381D2000380FD0081C051009B
:102FD0000500320004F0A6001800370010002000A1
:102FE00042E0B60015003700844078008641780042
:102FF0000170A1000370A10081C0510005003200E2
:1030000004F0A6000D0037001000200042E0B600DA
:103010000A003700858053000500320004F0A60046
:10302000060037001000200042E0B6000300370021
:103030004200A9000100370000003700CF037800EC
:103040004F037800CF02780000000600851F78004B
:10305000861F78007E08E20098003A000828EF00FA
:10306000040824005440880074C72C008440880061
:10307000B4222300944088001828EF0004002400A4
:10308000D44088004300A8008088BF00114480001D
:103090002244800033448000CA1502000000000072
:1030A000A81402000000000020A8B7002088BF007C
:1030B00074170200000000004300A900000178001E
:1030C000810178002488BF0031418000CA150200C8
:1030D0000000000024A8B700314188002088BF000C
:1030E00074170200000000000001780081017800E0
:1030F0000888BF00514080001A1302000000000041
:1031000080027800010378001088BF0091408000A1
:1031100022418000334180001A13020000000000A9
:103120004300A900000178008101780005007800C3
:1031300086007800CA1502000000000080027800B6
:10314000010378002088BF0074170200000000000F
:103150004300A800E2418000F3418000CA1502004C
:103160000000000000017800810178001888BF008D
:10317000D14080001A130200000000004300A900A3
:103180000001780081017800050078008600780051
:10319000CA150200000000002CA8B7007141880089
:1031A0002088BF0074170200000000003CA8B70090
:1031B000F14188002088BF0000F0A600030037001E
:1031C00004002000034180000300520080027800C8
:1031D000050078007417020000000000000178006C
:1031E000810178004488BF0031428000BE17020090
:1031F000000000001000390000002000F13724001A
:103200006241800073418000BE1702000000000090
:10321000040039003428EF00F4372400B44188005A
:10322000050037002C88BF007141800001F0A1002B
:1032300034A8B700B1418800000020000100200040
:103240006241800073418000BE1702000000000050
:103250000D0039003488BF00B1418000A81402007D
:1032600000000000800278007E08F800A208F90043
:103270001400200024458800354588001C0E0200FB
:10328000000000000C0037003488BF00B14180000E
:10329000A814020000000000800278007E08F800F8
:1032A000A208F90024002000244588003545880044
:1032B0001C0E0200000000009B003700F443800059
:1032C0006120E10098003A00B43026006440880094
:1032D000F4FF230074408800C45A2C00A4408800E6
:1032E00074722300B44088001C28EF0004FC230003
:1032F000F44088004300A8008088BF00114480008B
:103300002244800033448000CA15020000000000FF
:10331000A81402000000000022A8B7002288BF0005
:1033200074170200000000004300A90000017800AB
:10333000810178002888BF0051418000CA15020031
:103340000000000028A8B700514188002288BF0073
:10335000741702000000000000017800810178006D
:103360000C88BF00714080001A13020000000000AA
:1033700080027800010378001488BF00B14080000B
:1033800042418000534180001A13020000000000F7
:103390004300A90000017800810178000500780051
:1033A00086007800CA150200000000008002780044
:1033B000010378002288BF0074170200000000009B
:1033C0004300A8000242800013428000CA15020098
:1033D0000000000000017800810178001C88BF0017
:1033E000F14080001A130200000000004300A90011
:1033F00000017800810178000500780086007800DF
:10340000CA1502000000000030A8B70091418800F2
:103410002288BF00741702000000000040A8B70017
:10342000114288002288BF0000F0A6000300370088
:103430000400200013418000030052008002780045
:1034400005007800741702000000000000017800F9
:10345000810178004488BF0031428000BE1702001D
:10346000000000001000390000002000F1372400A7
:103470008241800093418000BE17020000000000DE
:10348000040039003828EF00F4372400D4418800C4
:10349000050037003088BF009141800001F0A10095
:1034A00038A8B700D14188000000200001002000AA
:1034B0008241800093418000BE170200000000009E
:1034C0000D0039003888BF00D1418000A8140200E7
:1034D00000000000800278007E08F800A208F900D1
:1034E0001400200024458800354588001C0E020089
:1034F000000000000C0037003888BF00D141800078
:10350000A814020000000000800278007E08F80085
:10351000A208F900240020002445880035458800D1
:103520001C0E0200000000004F037800CF0278005C
:10353000000006004200F8003600F8003200F800F3
:10354000801F7800200020000C000900B01F7800C8
:103550004A88BF00614280008001EB0001F0A700B3
:103560008081EB00030178005A1002000000000087
:10357000040020000500200006002000E7012400D0
:10358000BE100200000000008002780001037800F5
:103590008203780003047800851F7800861F780076
:1035A000871F780005007800860078000701780002
:1035B000880178000400200005002000060020009B
:1035C00007052400CE11020000000000CF037800A0
:1035D0004F037800CF027800D612020000000000EE
:1035E00091428800A24288004E88BF00814280003C
:1035F0008001EB0001F0A7008081EB00030178005F
:103600005A10020000000000040020000500200005
:1036100006002000E7012400BE10020000000000A8
:1036200080027800010378008203780003047800A8
:10363000851F7800861F7800871F780005007800B6
:1036400086007800070178008801780004002000D7
:10365000050020000600200007052400CE1102000E
:1036600000000000CF0378004F037800CF027800FD
:10367000D612020000000000B1428800C242880059
:103680005288BF00A14280000200200003042400F1
:103690001A13020000000000800278000103780085
:1036A0000500780086007800B2438000C3438000A4
:1036B0001A13020000000000800278000103780065
:1036C00005007800860078000200200043332400C3
:1036D000DE1302000000000060A8B700114388005C
:1036E0005688BF00C142800002002000030424006D
:1036F0001A13020000000000800278000103780025
:103700000500780086007800B2438000C343800043
:103710001A13020000000000800278000103780004
:103720000500780086007800020020004333240062
:10373000DE1302000000000064A8B70031438800D7
:103740005288BF00A1428000A814020000000000BF
:103750007CA8B70001002000010078000160EF00A4
:10376000FC0D0200000000008100E8002322AF00F1
:10377000FEFF370024A2B700F00020000008E6009A
:10378000F5FF37007C88BF0004002000D41402003D
:10379000000000007E28EF008028EF004433240062
:1037A000144488005208F8008408F9005408F8000E
:1037B0008608F90026180200000000009780A90082
:1037C0008760A900A00120000C0009004F107800BC
:1037D0004F0078003200F9003600F9004200F9008D
:1037E000004006004200F8003600F8003200F80001
:1037F000801F7800200020000C000900B01F780016
:103800004A88BF00614280008001EB0001F0A70000
:103810008081EB00030178005A10020000000000D4
:10382000040020000500200006002000E70124001D
:10383000BE10020000000000800278000103780042
:103840008203780003047800851F7800861F7800C3
:10385000871F78000500780086007800070178004F
:1038600088017800040020000500200006002000E8
:1038700007052400CE11020000000000CF037800ED
:103880004F037800CF027800D6120200000000003B
:1038900091428800A24288004E88BF008142800089
:1038A0008001EB0001F0A7008081EB0003017800AC
:1038B0005A10020000000000040020000500200053
:1038C00006002000E7012400BE10020000000000F6
:1038D00080027800010378008203780003047800F6
:1038E000851F7800861F7800871F78000500780004
:1038F0008600780007017800880178000400200025
:10390000050020000600200007052400CE1102005B
:1039100000000000CF0378004F037800CF0278004A
:10392000D612020000000000B1428800C2428800A6
:103930005288BF00A142800002002000030424003E
:103940001A130200000000008002780001037800D2
:103950000500780086007800B2438000C3438000F1
:103960001A130200000000008002780001037800B2
:103970000500780086007800020020004333240010
:10398000DE1302000000000060A8B70011438800A9
:103990005688BF00C14280000200200003042400BA
:1039A0001A13020000000000800278000103780072
:1039B0000500780086007800B2438000C343800091
:1039C0001A13020000000000800278000103780052
:1039D00005007800860078000200200043332400B0
:1039E000DE1302000000000064A8B7003143880025
:1039F0005288BF00A1428000A8140200000000000D
:103A00007CA8B70001002000010078000160EF00F1
:103A1000FC0D0200000000008100E8002322AF003E
:103A2000FEFF370024A2B700F00020000008E600E7
:103A3000F5FF37007C88BF0004002000D41402008A
:103A4000000000007E28EF008028EF0044332C00A7
:103A5000144488005208F8008408F9005408F8005B
:103A60008608F90026180200000000009760A900EF
:103A70008780A900A00120000C0009004F107800E9
:103A80004F0078003200F9003600F9004200F900DA
:103A900000400600851F78002CA3EF00051680006B
:103AA00080FE2F0085026000051688004516800004
:103AB000F0F32F0085026000451688006C88BF0077
:103AC000610060006EA8B7006C88BF00E202600071
:103AD000854388007028D5006C88BF00E402600030
:103AE000954388007228D5007228D5006C88BF00E5
:103AF000E8026000A54388007428D5007428D5002A
:103B00007428D50014082000140A88008420A90015
:103B10009420A80014082000340A880084A0A9007A
:103B200094A0A80014082000540A880088A0A900C6
:103B300098A0A80014082000740A880088C0A90072
:103B400098C0A8008680A9009680A80087A0A90038
:103B500097A0A8004828EF004808F8008201F90063
:103B60004808F8008001F900E4002000240C8800D7
:103B70004808F8008801F9004808F8008601F900B3
:103B8000E4002000540C88000021EF000421EF0025
:103B90009486210014088800040328002408880063
:103BA0000621EF001021EF000CA1EF000400280017
:103BB000840888000A21EF001221EF000419200078
:103BC0007408880004002800940888001421EF007D
:103BD0001E21EF0094862100D408880004032800E9
:103BE000F40888001821EF002021EF0094862100BE
:103BF000E40888000403280004098800CF02780044
:103C0000000006000F782200F07F220020A0B700FD
:103C100000000000404424002005880040442400A7
:103C20008005880081E0A8006004200042E7B7001A
:103C30007005200042E7B70042C7A900F0532000FA
:103C400080A6B70040F0230082A6B7000010200035
:103C50008EA6B7002030200090A6B700C0F0230049
:103C6000A4A6B70020312100C6A6B700003020006E
:103C7000CCA6B7006004200042E7B7007005200022
:103C800042E7B70042C7A8004427EF00040028001D
:103C90000411880004402000141188002062A8004C
:103CA00024022000441188000828EF000A28EF00B1
:103CB0000C28EF000E28EF001028EF001228EF006C
:103CC0001428EF001628EF001828EF001A28EF003C
:103CD0001C28EF001E28EF002028EF002228EF000C
:103CE0002428EF002628EF002828EF002A28EF00DC
:103CF0002C28EF002E28EF003028EF003228EF00AC
:103D00003428EF003628EF003828EF003A28EF007B
:103D10003C28EF003E28EF004028EF004228EF004B
:103D20004428EF0004F02300344288004A28EF00C2
:103D30004C28EF004E28EF005028EF005228EF00EB
:103D40005428EF005628EF005828EF00440B2000BD
:103D5000D44288005C28EF006028EF006228EF0062
:103D60006428EF006628EF006828EF006A28EF005B
:103D700094C22500B443880074132400C44388000F
:103D800014002000D44388000028EF004828EF00EA
:103D90004427EF000028EF002CA3EF00A48A2000A6
:103DA0003440880024ED210054458800AC28EF0001
:103DB00081E0A900040E20001402880081E0A80020
:103DC0004A1D02000000000081E0A9004220EF002F
:103DD00081E0A800FFFF37000020EF000040FE0058
:020000040001F9
:0807F800C7F900FF7F3F00FF7D
:00000001FF
;PIC24FJ48GA002
;CRC=0D0F  CREATED="17-¾.Â.-17 23:05"
